:0C0000000C94A8000C9400000C9400006C
:10000C000C9400000C9400000C9400000C94000064
:10001C000C9400000C9400000C9400000C94000054
:10002C000C9400000C9400000C9400000C94000044
:10003C000C9400000C9400000C9400000C94000034
:10004C000C9400000C9400001027E80364000A00D4
:10005C0001000010000110000100415441542B49D3
:10006C0050523D39363030004154265741542B43C1
:10007C004D47463D310041542B434D47533D222BB8
:10008C003834393336323330383631225761726E68
:10009C00696E67206D6F76654C4F4144494E472021
:1000AC0053494D2E2E2E002054484F415420484980
:1000BC00454D204E47415900504841542048494530
:1000CC004E204C554100434F204348415920524F3C
:1000DC00490050484154204849454E004B4849205E
:1000EC00474100414E20544F414E000080C0020059
:1000FC00B30266000B00B60268000400C202740072
:10010C000900C70278001600D10282000C00E80238
:10011C0098000F006002A40011006F02B3000E00E3
:10012C008002C4000C008E02D2000A009A02DE008B
:10013C000700A402E8000800AB02EF000200F50281
:10014C00F8000000F894EE27ECBBF1E0FBBFEBBF2E
:10015C00E5BF8DE0A2E0BB27ED938A95E9F780E03F
:10016C0098E0A0E6ED930197E9F7EAEFF0E08591CE
:10017C009591009761F0A591B59105901590BF01EF
:10018C00F00105900D920197E1F7FB01F0CFEFE53F
:10019C00EDBFE8E0EEBFC0E6D2E00C94370144249A
:1001AC005524A3EBB2E00E94720239F0A3EBB2E04B
:1001BC000E9477020E947F02F4CF0E948402A6EB79
:1001CC00B2E00E94720239F0A6EBB2E00E94770214
:1001DC000E947F02F4CF0E948402A2ECB2E00E9443
:1001EC00720239F0A2ECB2E00E9477020E947F0208
:1001FC00F4CFEDE0ECB9ACE2B1E030C044245524CE
:10020C00A7ECB2E00E94720239F0A7ECB2E00E94B7
:10021C0077020E947F02F4CF0E948D02A1EDB2E022
:10022C000E94720239F0A1EDB2E00E9477020E94A6
:10023C007F02F4CF0E948D02A8EEB2E00E947202FF
:10024C0039F0A8EEB2E00E9477020E947F02F4CF50
:10025C00EDE0ECB9EAE1ECB9A8EEB3E00E94A4023F
:10026C000895E0E0EABBE7E0EBBBE0E0E7BBE8BB0E
:10027C00E0E4E4BBE0E0E5BBE1BBE2BBE3BFE2BF33
:10028C00ECBFEFBDEEBDEDBDECBDE7BDE6BDEBBD1E
:10029C00EABDE9BDE8BDE2BDE5BDE4BDE3BDE9BF36
:1002AC00E5BFE4BFEBB9E8E1EAB9E6E8E0BDE0E0C0
:1002BC00E0BDE3E3E9B9E0E8E8B9E0E0E0BFE6B9C6
:1002CC00EDB9E6BFA0E10E944402A0E6B2E00E94B4
:1002DC003302A8E9BAE30E94A40261DFA8E8B3E103
:1002EC000E94A4020E941202C89904C0C99902C0BB
:1002FC00CA9B01C00FC0AFE6B2E00E943302AE9AB7
:10030C007DDFC89904C0C99902C0CA9B01C001C055
:10031C00F8CF4CC0CA9911C0A0E8B2E00E943302D9
:10032C00AE9ACA9909C0C89904C0C99902C0CA9B9F
:10033C0001C001C001C0F5CF39C0C99911C0AEE8E8
:10034C00B2E00E943302AE9AC99909C0C89904C0A0
:10035C00C99902C0CA9B01C001C001C0F5CF26C01B
:10036C00C8991AC0AAE9B2E00E943302E0E0EA930D
:10037C00A1E00E940502A4EAB2E00E943302AE9A08
:10038C00C89909C0C89904C0C99902C0CA9B01C0C8
:10039C0001C001C0F5CF0AC0E3E0EA93A0E00E94DF
:1003AC000502ABEAB2E00E943302AE98A8EEB3E0CD
:1003BC000E94A4020E94120297CFFFCFAA93E5B32A
:1003CC00E07FAE2FE881E295EF70EA2BE5BB8DE084
:1003DC008A95F1F7DF9A8DE08A95F1F7DF988DE039
:1003EC008A95F1F777C0AA93A881E8DFE881E295B6
:1003FC00E883A881E3DF85E88A95F1F76BC0AA93BF
:10040C00E881F0E0EB50FD4FE081A981AE0FEBDF0E
:10041C006980988022960895A2E00E949602ACE032
:10042C00E2DFA1E00E949602E0E09E2E6E2E08957F
:10043C00AA93A881AA3011F0681448F0E0E0EA937E
:10044C009394A92DDCDFA881AA3009F443C06394EE
:10045C00DD9AA881C8DFDD983DC0BA93AA931A93A0
:10046C00A981BA81ED91A983BA831E2FE03019F0CE
:10047C00A12FDEDFF5CF188123960895AA93E4B35C
:10048C00EF60E4BBD79AD59AD69ADF98DD98DE98C0
:10049C008880E881E058E093F702E881E054E0932B
:1004AC00F802A4E1B0E00E94A4020E949C020E9407
:1004BC009C020E949C02A0E281DF88EC90E00197F4
:1004CC00F1F7A8E290DFA4E08EDFA5E88CDFA6E0D0
:1004DC008ADFA2DF21960895A40DB51DEC91E030C2
:1004EC000895A40DB51DEC91ECB9A4E6B0E00C9404
:1004FC00A402F20131962F0131970895EDE0ECB989
:10050C00ACE2B1E00E94A402442455240895EDE02D
:10051C00ECB9A4EFB1E00E94A40244245524089540
:10052C000E94F901A3E0B0E00C94A402A0E30E94A5
:10053C00E40188EC90E00197F1F70895109639F0FA
:10054C0080ED97E00197F1F7A8951197C9F70895F9
:00000001FF
